:020000040800F2
:10000000C809002029020008310200083302000854
:10001000350200083702000839020008000000001D
:100020000000000000000000000000003B0200088B
:100030003D020008000000003F02000841020008E5
:10004000430200084302000843020008430200087C
:10005000430200084302000843020008430200086C
:10006000430200084302000843020008430200085C
:10007000430200084302000843020008430200084C
:10008000430200084302000843020008430200083C
:100090004302000843020008430200088D060008DE
:1000A000430200084302000843020008430200081C
:1000B000430200084302000843020008430200080C
:1000C00043020008430200084302000843020008FC
:1000D00043020008430200084302000843020008EC
:1000E00039060008430200084302000843020008E2
:1000F00043020008430200084302000843020008CC
:1001000043020008430200084302000843020008BB
:1001100043020008430200084302000843020008AB
:10012000430200084302000843020008430200089B
:10013000430200084302000843020008430200088B
:10014000430200084302000843020008430200087B
:10015000430200084302000843020008430200086B
:10016000430200084302000843020008430200085B
:10017000430200084302000843020008430200084B
:10018000430200084302000800F002F800F03CF8C7
:100190000AA090E8000C82448344AAF10107DA45E2
:1001A00001D100F031F8AFF2090EBAE80F0013F0F8
:1001B000010F18BFFB1A43F001031847E8240000A1
:1001C00008250000103A24BF78C878C1FAD8520731
:1001D00024BF30C830C144BF04680C6070470000C1
:1001E0000023002400250026103A28BF78C1FBD840
:1001F000520728BF30C148BF0B6070471FB501F0E0
:10020000CBFC1FBD10B510BD00F036F81146FFF74E
:10021000F5FF01F051FC00F054F803B4FFF7F2FFD2
:1002200003BC00F057F80000094880470948004720
:10023000FEE7FEE7FEE7FEE7FEE7FEE7FEE7FEE796
:10024000FEE7FEE704480549054A064B70470000F3
:100250004D14000889010008C8030020C8090020C7
:10026000C8050020C805002070477047704700008F
:1002700000487047680300207546FFF7F9FFAE4657
:1002800005006946534620F00700854618B020B5A2
:10029000FFF7D8FFBDE820404FF000064FF0000701
:1002A0004FF000084FF0000B21F00701AC46ACE81E
:1002B000C009ACE8C009ACE8C009ACE8C0098D468B
:1002C000704710B50446AFF300802046BDE81040EB
:1002D000FFF7A3BF01491820ABBEFEE726000200CE
:1002E0007047000010B5064C206840F40070206094
:1002F0001E2000F0F9F8206820F40070206010BD86
:10030000141402402DE9F0413A4C3B4F1625207958
:1003100007F5C876002835D0012869D1FF2001F003
:1003200007F8607811213030C2B2092000F0FCFEDD
:1003300020780F213030C2B2092000F0F5FE20787D
:10034000617800EB800007EBC00252F82120002A00
:100350004ED106EBC00050F82100002848D1FF2004
:1003600000F0D4FF6078072300EB800005EB40012C
:1003700020781A4600EB800005EB4000BDE8F04114
:1003800000F036BF4FF47F08404600F0D1FFE07820
:1003900004213030C2B2092000F0C6FEA07802214C
:1003A0003030C2B2092000F0BFFEA178E27801EB44
:1003B000810107EBC10050F82200002818D106EB9C
:1003C000C10050F82200002812D1404600F09EFFE4
:1003D000E078072300EB800005EB4001A0781A4687
:1003E00000EB800005EB4000BDE8F04100F000BFED
:1003F000BDE8F081000000204800002070B5364CB8
:100400000520A070E07020706070002666710320E7
:100410002071A673A671E67126726672A672E672E4
:100420002673667300212D4B002001EB810203EB44
:10043000C20242F82060401C0928FADD491C092943
:10044000F2DD0021264B002001EB810203EBC2020A
:1004500042F82060401C0928FADD491C0929F2DD18
:100460000025FFF73FFF642000F03EF86D1C052DCE
:10047000F7DB4FF4FA6000F037F860690A2800D122
:100480006661A0690A2800D1A66116494FF47F4031
:10049000086000F04BF84FF47F0000F049FF207D2A
:1004A00007213030C2B2092000F03EFEFF2000F0EC
:1004B0003FFF207E0C213030C2B2092000F034FE14
:1004C000217D4FF4967000F03BFC217EBDE870402A
:1004D00040F22D1000F034BC000000204800002045
:1004E000D80100201418024030B5044600224FF411
:1004F0007A7504E0284600F005F8521C92B2A24238
:10050000F8D330BD08B500EB0010009002E0009871
:10051000401E009000980028F9D10348016881F03E
:100520000401016008BD00001414024070B5394C8C
:10053000204600F0F7FD384800F0EEFE204600F0BF
:10054000DFFE002000F0F4FE002134A2084600F097
:10055000FDFD30220221012000F0E6FD35220921B7
:10056000012000F0E1FD35220221052000F0DCFD34
:1005700039220E21012000F0D7FD39220221082066
:1005800000F0D2FD092129A2084600F0DFFD4FF45A
:100590007F0000F0CDFE26A20121092000F0D6FD4B
:1005A00030220721092000F0BFFDFF2000F0C0FE2F
:1005B00030220C21092000F0B7FD1DA20E210920D8
:1005C00000F0C4FD002000F0A1FE052349211A46D9
:1005D000084600F00DFE002000F0A4FE00241925BE
:1005E00004EB840005EB40015A22192000F01EFEA6
:1005F000641CE4B2092CF3D9002404EB840005EB5D
:1006000040005A22192100F045FE641CE4B2092C76
:10061000F3D970BD00FFFF003C0000204D6563680A
:10062000612D4F4D4F4B284B484A2900565300002F
:1006300028352C352900000010B51148016809043F
:100640001DD5016841F4004101600E494879012837
:1006500002D08A7B104312D1012008718873FF20D9
:1006600000F066FE20220021092000F05DFD2A2214
:100670000D21092000F058FD03498020086010BDBD
:10068000143C014000000020141802402DE9F05FE6
:100690005A4E30685A4CC0054FF0000B4FF0010520
:1006A0004FF47F081BD5306840F48070306060796B
:1006B000022802D0A17B084311D184F804B0A573AD
:1006C000404600F035FE2A220021092000F02CFDD2
:1006D00020220D21092000F027FD4A4805603068DE
:1006E000800631D5306840F020003060464F2079D8
:1006F0004FF0030A162607F5C8724FF4967960B1D9
:10070000012821D12078904600EB8000617802EB2F
:10071000C00252F82120E2B343E0A078E17800EB78
:10072000800007EBC00353F8213023B902EBC0006F
:1007300050F8210050B10024FFF7D4FD4846FFF7E0
:10074000D3FE641C032CF7DBBDE8F09FFFF7CAFD66
:10075000657184F804A084F80EB0404600F0D6FD20
:10076000E078072300EB800006EB4001A0781A46F2
:1007700000EB800006EB400000F03AFDA078E17845
:1007800000EB800007EBC00040F82150BDE8F05FAF
:1007900000E001E000F0A4BE07EBC00050F821002B
:1007A00048B10024FFF79EFD4846FFF79DFE641CFC
:1007B000032CF7DBC8E7FFF795FD0220607184F892
:1007C00004A0FF2000F0A2FD6078072300EB80006A
:1007D00006EB400120781A4600EB800006EB400053
:1007E00000F006FD2078617800EB800008EBC00087
:1007F00040F82150BDE8F05F00F072BE143C0140AB
:100800000000002014180240480000202DE9F041AB
:10081000334CDFF8D080344F2079162508F5C876A0
:10082000002829D1A078E27800EB800108EBC10014
:1008300050F8220000BB06EBC10050F82200D8B9E6
:10084000384600F063FDE078072300EB800005EBFD
:100850004001A0781A4600EB800005EB400000F054
:10086000C7FC002000F052FD052349211A46084626
:1008700000F0BEFC01F060F8207901282DD120782D
:10088000627800EB800108EBC10050F822000028DC
:1008900023D106EBC10050F8220000281DD13846B4
:1008A00000F034FD6078072300EB800005EB400189
:1008B00020781A4600EB800005EB400000F098FC21
:1008C000002000F023FD052349211A46084600F0C8
:1008D0008FFCBDE8F04101F02FB8BDE8F0810000C9
:1008E000000000204800002000FFFF002DE9FC412F
:1008F0000121382000F022FD02258DF80450032646
:100900008DF8056000248DF806408DF807404CF204
:1009100003000090374F6946384600F033FA0C2246
:100920000E21384600F06CFA0C220F21384600F0F8
:1009300067FA0C220021384600F062FA0C220121ED
:10094000384600F05DFA4FF4F0600090DFF8A880C0
:100950006946404600F016FA0C220721404600F096
:100960004FFA0C220821404600F04AFA0C220921D5
:10097000404600F045FA0C220A21404600F040FAB9
:10098000B02000908DF804508DF805608DF8064079
:100990008DF807406946384600F0F4F90C2204212E
:1009A000384600F02DFA0C220521384600F028FACE
:1009B0000C220721384600F023FA012600960F4F3B
:1009C0006946384600F0DEF90C220021384600F076
:1009D00017FA822000908DF804608DF805508DF88C
:1009E00006408DF807406946384600F0CBF9BDE86F
:1009F000FC810000000C0240001002400014024084
:100A000000B597B00121084600F0A6FC0320019034
:100A10000290039000200490022105910691C906DE
:100A20000791089009900A900B900C900D900E90F1
:100A30000F9010900914119112901390149001A826
:100A40001590169008A800F019F80121002000F078
:100A500003F817B000BD00008000A0F1C0400029DD
:100A600004D0016841F00101016070470168024A49
:100A70001140016070470000FEFF0F0070B5016873
:100A80008900A1F1C0410B68344A1340D0E9012428
:100A90002243D0E903452C4322434469224384691D
:100AA0002243C4692243046A2243446A2243846A7B
:100AB0002243C46A2243046B22431A430A608168BA
:100AC000082907D101688900A1F1C0410A6842F0F4
:100AD00040020A600168491C8A00A2F1C042116804
:100AE00001F04044416BD1E9003543EA05138D68BC
:100AF0008E892D0245EA06452B430D8A43EA0553AC
:100B00000D7D896943EA05630B4323431360C16A82
:100B1000B1F5804F08D000686FF070418000A0F1FF
:100B2000C040C0F8041170BD01688900A1F1C04146
:100B3000D1F804210A4B1A40806BD0E9003443EA13
:100B4000041384688589240244EA054480692343A8
:100B500003431343C1F8043170BD00008000F7FF68
:100B60000000F0CF4848016841F4804101604648E8
:100B70001038016841F4807101604448016841F413
:100B800080710160416821F010014160816841F489
:100B900000718160C16821F44071C160016841F059
:100BA00001010160416821F001014160816841F06B
:100BB00002018160C16821F00301C160016841F058
:100BC00008010160416821F002014160816841F043
:100BD00008018160C16841F00801C160016A41F00B
:100BE00050010162016841F020010160416821F07B
:100BF00004014160816841F020018160C16841F0D9
:100C00002001C160016A41F4A0610162016841F004
:100C100080010160416821F008014160816841F074
:100C200080018160C16841F08001C160016A41F4C6
:100C3000A04101621648018841F004010180018849
:100C400021F400410180018821F4006101800188C4
:100C500041F400710180018841F4807101800188B4
:100C600021F080010180018841F02001018001888C
:100C700041F002010180018841F0010101800188F9
:100C800041F040010180704740380240002002409E
:100C90000038004000B5064B596921F00101596147
:100CA00000F068FB586940F00100586100BD000089
:100CB0000020024030B504460420FFF7EBFF03217B
:100CC000C4F30725E4B20B4B586920F001005861CA
:100CD000084600F04FFB284600F04CFB204600F091
:100CE00049FBFF2000F046FB596941F001015961C1
:100CF00030BD00000020024010B5002401200F4B41
:100D0000596941F010015961596921F00101596196
:100D100000F030FB204600F02DFB586940F0010048
:100D200058610520596921F00101596100F022FB49
:100D3000586940F00100586110BD000000200240D9
:100D400070B505460C460620FFF7A4FF0220C5F348
:100D50000726EDB20A4B596921F00101596100F0F3
:100D600009FB304600F006FB284600F003FB204656
:100D700000F000FB586940F00100586170BD0000B0
:100D8000002002402DE9F041002201274FF0030C22
:100D900007FA02F50B682B40AB422CD106685300D2
:100DA0000CFA03F4A64306600E79D0F800809E404A
:100DB00046EA080606600E79012E01D0022E12D1F5
:100DC0008668A64386604E79D0F808809E4046EA41
:100DD000080686604668AE43466045688E79964050
:100DE000B6B235434560C568A543C560CC799C4023
:100DF000C3681C43C460521C102AC9D3BDE8F081EB
:100E000010B54B07DB0E9A40C90800EB8100016A60
:100E10000F249C40A1430162016A1143016210BD8D
:100E200070B5064600218023A022084600F00DF987
:100E300000F049F900250024304600F035F9641C23
:100E4000A02CF9D36D1C802DF5D3BDE8704000F0C7
:100E500028B9000070B5FFF749FDFFF7D1FD714CCF
:100E600080202080022525800A2000F01DFBA01C88
:100E700005800A2000F018FB2580322000F014FBCA
:100E8000012000F023F9322000F00EFB112000F0C9
:100E90001DF9782000F008FB262000F017F9042047
:100EA00000F018F9B12000F011F90A2000F012F951
:100EB000142000F00FF9C02000F008F9082000F01D
:100EC00009F9002000F006F9C12000F0FFF8052024
:100ED00000F000F9C52000F0F9F8382000F0FAF829
:100EE000352000F0F7F83A2000F0F0F8062000F086
:100EF000F1F82A2000F0EAF8002000F0EBF80020DA
:100F000000F0E8F8002000F0E5F87F2000F0E2F8BB
:100F10002B2000F0DBF8002000F0DCF8002000F0CF
:100F2000D9F8002000F0D6F89F2000F0D3F8362042
:100F300000F0CCF8702000F0CDF8B72000F0C6F833
:100F4000002000F0C7F8F22000F0C0F8012000F007
:100F5000C1F8E02000F0BAF83F2000F0BBF82220F2
:100F600000F0B8F8202000F0B5F8302000F0B2F81A
:100F7000292000F0AFF80C2000F0ACF84E2000F073
:100F8000A9F8B72000F0A6F83C2000F0A3F819203B
:100F900000F0A0F8222000F09DF81E2000F09AF842
:100FA000022000F097F8012000F094F8002000F0F3
:100FB00091F8E12000F08AF8002000F08BF81B2067
:100FC00000F088F81F2000F085F80F2000F082F86C
:100FD000162000F07FF8132000F07CF8312000F09C
:100FE00079F8842000F076F8432000F073F80620AA
:100FF00000F070F81D2000F06DF8212000F06AF874
:101000003D2000F067F83E2000F064F83F2000F03B
:1010100061F8292000F05AF8BDE870400121002055
:1010200000F002B81814024070B506460D462024A0
:10103000362000F04BF805B1A0240EB144F0400476
:10104000E0B2BDE8704000F045B82DE9F041064639
:101050000F4614461D462A2000F038F8A02C00D96F
:10106000A024802D00D98025002000F033F8F0B2B4
:1010700000F030F8002000F02DF8E0B200F02AF87F
:101080002B2000F023F8002000F024F8F8B200F044
:1010900021F8002000F01EF8E8B2BDE8F04100F0B1
:1010A00019B8002000F012B810B50446C4F3074088
:1010B00000F010F8C4F3072000F00CF8E0B2BDE82F
:1010C000104000F007B82C20AFF300804FF0C04173
:1010D000087070474FF0C0414870704730B50F48F6
:1010E000006900F478740E4D4FF478718C42E87BFF
:1010F00009D130B10A20FFF7F7F90020E873204644
:1011000030BD204630BD08B1084630BD0120E8732F
:101110000A20FFF7E9F9204630BD00000020024018
:1011200000000020FFF77CBE10B503460C4600F01F
:10113000CBF8C088401C584381B200F0C5F88088C5
:101140006043BDE8104080B200F012B810B503460D
:101150000C4600F0B9F8C088401C584381B200F03A
:10116000B3F880886043BDE8104080B200F078B8E2
:101170002DE9F04791461D4F3A6894882318A02B1B
:1011800032D2D3884A1E1A4493B2421E224492B2EB
:10119000FFF75BFF3868B0F80480B8F1080F01D39F
:1011A0004FF00808FFF78FFF002615E0006809FBE5
:1011B0000100345C00250BE0200603D5F868FFF73A
:1011C00073FF02E07868FFF76FFF6006040E6D1C86
:1011D0004545F1DB761CB6B238680189B142E5D8E5
:1011E000BDE8F047FFF75DBFBDE8F0871C000020B9
:1011F0002DE9F04116461F46CA19521E93B28219B4
:10120000521E92B2FFF721FFFFF75DFF0024064D4B
:101210007E4303E0A868FFF747FF641CA642F9D8A5
:10122000BDE8F041FFF73DBF1C00002070B515463A
:10123000421992B20B46FFF708FFFFF744FF002464
:10124000064E04E03069FFF72FFF641CA4B2AC42E5
:10125000F8D3BDE87040FFF724BF00001C00002059
:101260002DE9F0410646884615460024084F0AE05D
:1012700038686D1C4146808804FB006080B2FFF72F
:1012800077FF641CA4B22A78002AF1D1BDE8F0816E
:101290001C00002070B515464A1993B20246FFF7AC
:1012A000D4FEFFF710FF0024064E04E03069FFF77C
:1012B000FBFE641CA4B2AC42F8D9BDE87040FFF755
:1012C000F0BE00001C0000200148006870470000CC
:1012D0001C00002010B508490020486088606FF0AD
:1012E0007F44CC600C6105480860FFF7B3FD2046E1
:1012F000BDE81040FFF716BF1C00002030000020A2
:1013000001494860704700001C00002001498860C6
:10131000704700001C000020014908607047000071
:101320001C00002001490861704700001C000020DB
:101330000149C860704700001C000020054A0029D0
:1013400003D0116801431160704711688143116037
:101350007047000030380240054A002903D0116868
:1013600001431160704711688143116070470000AC
:101370003838024006490A889207FCD5044A121DF3
:1013800010800888C007FCD01088C0B270470000E9
:10139000083800400CB500220192009227490868E5
:1013A00040F4803008604FF4A043086800F4003037
:1013B00000900198401C0190009810B90198984243
:1013C000F3D10868800302D50120009000E000926C
:1013D0000098012831D119484030026842F080520B
:1013E00002601748026842F4404202601348083025
:1013F00002680260026842F400420260026842F43D
:10140000A0520260021F0F4B13600A6842F0807204
:101410000A600A689201FCD50B4A40F2057111601E
:10142000016821F003010160016841F002010160DF
:101430000168C1F381010229FAD10CBD00380240D4
:101440000070004008544007003C024010B51248AC
:10145000016841F4700101601048016841F0010128
:1014600001600E4A00210832116002680C4B1A40DC
:101470000260031D0B4A1A60026822F48022026097
:1014800006480C300160FFF785FF03494FF000600C
:101490008039086010BD000088ED00E0003802408F
:1014A000FFFFF6FE1030002410B5024600214FF475
:1014B0007A7404E0204600F005F8491C89B2914294
:1014C000F8D310BD08B500EB40004000009002E0EA
:1014D0000098401E009000980028F9D108BD000037
:1014E0002DE9F05F0025DFF80893DFF8088309F5A0
:1014F000C87B002405EB850009EBC0060BEBC00799
:1015000056F8240001281AD1601C56F82000012842
:1015100015D1A01C56F82000012810D1E01C56F867
:10152000200001280BD1201D56F82000012806D1EB
:10153000D8F81400401CC8F81400FEF75FFF04EB55
:10154000840A09EBCA0050F8250001282AD1601C42
:1015500000EB800009EBC00050F82500012821D1E4
:10156000A01C00EB800009EBC00050F8250001280A
:1015700018D1E01C00EB800009EBC00050F82500FA
:1015800001280FD1201D00EB800009EBC00050F8AE
:101590002500012806D1D8F81400401CC8F8140012
:1015A000FEF72CFF57F8240001281AD1601C57F8C9
:1015B0002000012815D1A01C57F82000012810D1C7
:1015C000E01C57F8200001280BD1201D57F82000FF
:1015D000012806D1D8F81800401CC8F81800FEF7FA
:1015E0000DFF0BEBCA0050F8250001282AD1601C22
:1015F00000EB80000BEBC00050F82500012821D142
:10160000A01C00EB80000BEBC00050F82500012867
:1016100018D1E01C00EB80000BEBC00050F8250057
:1016200001280FD1201D00EB80000BEBC00050F80B
:101630002500012806D1D8F81800401CC8F8180069
:10164000FEF7DCFE56F8240001282ED1681C00EBC2
:10165000800009EBC000611C50F82100012824D152
:10166000A81C00EB800009EBC000A11C50F8210071
:1016700001281AD1E81C00EB800009EBC000E11C36
:1016800050F82100012810D1281D00EB800009EB43
:10169000C001201D51F82000012806D1D8F81400FF
:1016A000401CC8F81400FEF7A9FE57F824000128D2
:1016B0002ED1681C00EB80000BEBC000611C50F8C1
:1016C0002100012824D1A81C00EB80000BEBC000F6
:1016D000A11C50F8210001281AD1E81C00EB800061
:1016E0000BEBC000E11C50F82100012810D1281D8F
:1016F00000EB80000BEBC001201D51F820000128F9
:1017000006D1D8F81800401CC8F81800FEF776FE7D
:1017100056F8240001282ED1681C00EB800009EB4C
:10172000C001601E51F82000012824D1A81C00EB44
:10173000800009EBC001A01E51F8200001281AD139
:10174000E81C00EB800009EBC001E01E51F820000E
:10175000012810D1281D00EB800009EBC001201FDB
:1017600051F82000012806D1D8F81400401CC8F810
:101770001400FEF743FE57F8240001282ED1681C00
:1017800000EB80000BEBC001601E51F82000012827
:1017900024D1A81C00EB80000BEBC001A01E51F867
:1017A000200001281AD1E81C00EB80000BEBC000E0
:1017B000E11E50F82100012810D1281D00EB800007
:1017C0000BEBC001201F51F82000012806D1D8F8EA
:1017D0001800401CC8F81800FEF710FE641C092C05
:1017E0007FF78EAE6D1C092D7FF783AEBDE8F09FAD
:1017F00048000020000000202148016841F4C07129
:1018000001601F481430016841F4804101601D48A7
:10181000016889B201601C4801681C4A11400160DE
:101820001B48016841F007010160001D016841F497
:10183000E04101601648001F016841F0800101602D
:101840001448016841F480710160001F016841F48F
:1018500000410160016841F0200101600D480C3831
:10186000016848F22012114301600B48016841F4FD
:1018700000010160416841F48071416070470000DF
:1018800030380240001C024000200240FF03F0FFFD
:10189000103801400C3C014000E100E01F480168A5
:1018A00041F0400101601E4A136845F255510B4357
:1018B0001360121D136823F0FF031360121D1368D9
:1018C0000B431360016841F08001016015490A680B
:1018D00092B20A6013490C310A6892B20A60016838
:1018E00041F02001016010490B68104A13430B605E
:1018F000091D0B6823F403730B60091D0B68134368
:101900000B60016841F4807101600948026809496F
:101910000A400260C2680A40C26070473038024024
:1019200000180240001C0240001402405000040055
:1019300000200240FF03F0FF70B50020FFF7F2FC2B
:101940000024192504EB840005EB400081B25A22E3
:101950001920FFF76BFC641C092CF3DD002404EB59
:10196000840005EB400080B25A221921FFF792FC57
:10197000641C092CF3DD70BD10B5FFF7AFFB4D4CB7
:10198000B0F5F07F1DD0B0F5387F3CD0B0F5587F72
:101990006BD0B0F5687F7DD12079002855D0012823
:1019A00078D1207B002875D1FEF79CFCFEF72EFF36
:1019B0006078401E607000F0BFF8BDE81040FEF790
:1019C000A1BC207960B9E07950B9FEF78BFCFEF735
:1019D0001DFFA078401EA07000F0AEF8FEF792FC4C
:1019E0002079012865D1E07A002862D1FEF77AFCDF
:1019F000FEF70CFF2078401E207000F09DF8BDE837
:101A00001040FEF77FBC207960B9A07950B9FEF78D
:101A100069FCFEF7FBFEA078401CA07000F08CF87B
:101A2000FEF770FC2079012843D1A07A002840D12C
:101A3000FEF758FCFEF7EAFE2078401C207000F00C
:101A40007BF8BDE81040FEF75DBC207A002830D15D
:101A5000FEF748FCFEF7DAFEE078401EE07000F08A
:101A60006BF8BDE81040FEF74DBC207960B9607A94
:101A700050B9FEF737FCFEF7C9FEE078401CE07075
:101A800000F05AF8FEF73EFC2079012811D1607B66
:101A9000002800E00DE00CD1FEF724FCFEF7B6FEB6
:101AA0006078401C607000F047F8BDE81040FEF719
:101AB00029BC10BD00000020FFF7F0FEFFF70AFC74
:101AC000FFF79AFE6420FEF70FFDFFF74BF8FFF7D4
:101AD00013F917494FF47F400860FEF727FD4FF4D4
:101AE0007F00FFF725FC4FF496742046FFF7E2F8DD
:101AF0003030C2B207210920FFF716FBFF20FFF7A5
:101B000017FC651C2846FFF7D5F83030C2B20C210F
:101B10000920FFF709FB2046FFF7CCF8054C606170
:101B20002846FFF7C7F8A061FFF726FFFCE7000093
:101B30001418024000000020164B012000219A7862
:101B4000002A04D0D971092A03D3987102E0D87110
:101B5000F9E79971DA7822B11972092A03D3587218
:101B600002E01872F9E759721A7822B1D972092A7B
:101B700003D3987202E0D872F9E799725A7822B1C9
:101B80001973092A03D3587370471873F9E7597307
:101B900070470000000000204FF04070E1EE100A96
:101BA000704700000000000000000000000000007E
:101BB00000001C101010000000000000F0101010B9
:101BC0001010101010101C00000010101010101039
:101BD000F000000010101010101010101010000075
:101BE00000000000FC000000000000307878783031
:101BF0000000FCFCFCCC848484CCFCFC00000030A5
:101C0000484848300000FCFCFCCCB4B4B4CCFCFC2C
:101C1000001C0C0C14103048483000384444381074
:101C20007C101010002030382C2424206060000C20
:101C3000342C3424242C6C6000545428286C28281C
:101C40005454101010101010FC10101000040C1C34
:101C50003C7C3C1C0C041038101010101010381074
:101C6000282828282828280028283C54545434148C
:101C700014141414101010101010FC0000000000B8
:101C800000000000FC101010101010101010F010C8
:101C9000101010381010101010101010101010101C
:101CA00010101C10101000000000087C080000003C
:101CB00000000000207C2000000000000000000068
:101CC0000000000000000000000000000000000014
:101CD0000000000000000000000000000000000004
:101CE00000000000000000000000000010101010B4
:101CF0001010100010102828000000000000000044
:101D000014147C282828FC50505010385450301897
:101D10001414543824545828101028345448304887
:101D20004848305448484834101000000000000073
:101D30000000081010202020202020102010100863
:101D400008080808081000000010107C1028000087
:101D500000000010107C10100000000000000000C7
:101D60000000101000000000007C000000000000D7
:101D700000000000000010100404080810102020CB
:101D800040403844444444444444443810301010E3
:101D90001010101010103844440408102040407CEB
:101DA00038444404180404444438081818282848BF
:101DB000487C08087C404040784404044438384457
:101DC00040407844444444387C444404080810109B
:101DD000101038444444384444444438384444445B
:101DE000443C0404443800001010000000101000AF
:101DF0000000101000000010102000000408304007
:101E000030080400000000007C007C00000000009E
:101E100040201804182040003844440408101000E2
:101E2000101018244C545454545C4038101010288E
:101E300028287C44444478444444784444444478C6
:101E40003844444040404044443878444444444446
:101E5000444444787C4040407C404040407C7C404E
:101E60004040784040404040384444405C44444412
:101E70004C34444444447C444444444410101010C2
:101E800010101010101008080808080808484830FA
:101E900044484850605050484844404040404040CA
:101EA0004040407C44446C6C6C545454444444441E
:101EB000646454544C4C444438444444444444447E
:101EC0004438784444444478404040403844444492
:101ED0004444444454387844444444784844444452
:101EE000384444201008044444387C10101010106A
:101EF000101010104444444444444444443844447E
:101F0000444428282810101054545454545454282D
:101F100028284444282810102828444444444428AD
:101F20002828101010107C04080810102020407C75
:101F300030202020202020202020545454FC5454B1
:101F4000542828283010101010101010101030488D
:101F50000000000000000000000000000000000081
:101F60000000201000000000000000000000003011
:101F700048384848483440404078444444444478D1
:101F8000000000384440404044380404043C4444C9
:101F90004444443C0000003844447C404438102011
:101FA00020702020202020200000003C4444443C9D
:101FB00004444040407844444444444410100010D9
:101FC0001010101010101010001010101010101021
:101FD00040404044485060504844001010101010D9
:101FE0001010101000000068545454545454000051
:101FF0000078444444444444000000384444444489
:102000004438000000784444444478400000003CD8
:10201000444444443C040000002C30202020202074
:102020000000003844403804443800202078202044
:10203000202020180000004444444444443C000054
:1020400000444444282810100000005454545438CC
:10205000282800000044442810284444000000447C
:102060004444282810100000007C04081020407C04
:102070000810101010601010101010101010101018
:1020800010101010402020202018202020200000B8
:10209000000000344800000000784848484848489C
:1020A0004878000000000000000000000000000070
:1020B000000000001E1010101010000000000000B2
:1020C000F010101010101010101010101E00000052
:1020D0000000101010101010F00000000000101090
:1020E0001010101010101010101000000000000050
:1020F000FE000000000000000000387C7C7C3800FE
:102100000000FEFEFEFEC6828282C6FEFEFE0000CB
:1021100000003844444438000000FEFEFEFEC6BA0B
:10212000BABAC6FEFEFE000E060A0A10304848483B
:102130003000003844443810107C1010100000109B
:10214000181C161212121470600000063A22263A69
:102150002222266660000010543828286C28385443
:102160001000101010101010FE10101010100002AF
:10217000060E1E3E7E3E1E0E060210385410101033
:102180001010105438100028282828282828002843
:1021900028003E4A4A4A4A3A0A0A0A0A0A0A10101B
:1021A00010101010FE0000000000000000000000F1
:1021B000FE1010101010101010101010F010101051
:1021C00010101038541010101010101010101010A3
:1021D000101010101E101010101000000000080445
:1021E0007E04080000000000000010207E20100087
:1021F00000000000000000000000000000000000DF
:1022000000000000000000000000000000000000CE
:1022100000000000000000000000000000000000BE
:10222000000000000000000000000000000000109E
:1022300010101010101000101000002828000000CE
:10224000000000000000001212127E2424FC484806
:1022500048001038545050381414145438100022C8
:102260005254280810142A2A440000182424281044
:10227000284A44443A00001010000000000000000A
:10228000000008101020202020202010100820100E
:10229000100808080808081010200000000010109E
:1022A0007C10280000000000000010107C101000BE
:1022B00000000000000000000000001010200000DE
:1022C000000000007E000000000000000000000090
:1022D0000000001010000202040408081010202062
:1022E0004040003C42424242424242423C000010D6
:1022F00030101010101010101000003C4242020468
:10230000182040407E00003C4242021C0202424231
:102310003C00000C0C14142424447E040400007EB1
:102320004040407C420202423C00003C4240407C33
:10233000424242423C00007E424204040408080833
:102340000800003C4242423C424242423C00003CC7
:10235000424242423E0202423C000000001800009D
:10236000000018000000000000180000000018081D
:102370001000000000060830403008060000000091
:1023800000007E00007E0000000000000060100CD5
:10239000020C1060000000384444040810100010C3
:1023A0001000001C224E525252525E403C0000105F
:1023B00010102828283844444400007C4242427CC3
:1023C000424242427C00003C424240404040424245
:1023D0003C00007844424242424242447800007E3F
:1023E0004040407E404040407E00007E4040407C77
:1023F000404040404000003C424240404E42424645
:102400003A0000424242427E4242424242000010B2
:102410001010101010101010100000040404040418
:10242000040444443800004244485060605048442A
:102430004200004040404040404040407E00004458
:10244000446C6C6C545454444400004444646454DC
:10245000544C4C444400001824424242424242241C
:102460001800007C424242427C4040404000003C18
:10247000424242424242524A3C02007C4242424272
:102480007C4242424200003C424240300C02424206
:102490003C00007C101010101010101010000042B2
:1024A00042424242424242423C00004444444428A8
:1024B000282810101000005454545454547C2828D8
:1024C00028000044442828101028284444000044D0
:1024D00044444428281010101000007E0204040810
:1024E000101020407E001810101010101010101046
:1024F000101800545454FE545454382828003010F6
:10250000101010101010101010300010284400008F
:1025100000000000000000000000000000000000BB
:102520007E000020100000000000000000000000FD
:1025300000003844043C44443A00004040407844A1
:102540004444444478000000000038444040404483
:102550003800000404043C44444444443C0000006B
:1025600000003844447C4044380000081010381003
:10257000101010101000000000003C4444443C04C3
:1025800044380040404078444444444444000010EF
:10259000100010101010101010000010100010107B
:1025A00010101010106000404040444850605048E7
:1025B0004400001010101010101010101000000037
:1025C00000006854545454545400000000007844EF
:1025D000444444444400000000003844444444441B
:1025E0003800000000007844444444784040000033
:1025F00000003C444444443C0404000000002C30EF
:1026000020202020200000000000384440380444EE
:102610003800000020207820202020201800000012
:1026200000004444444444443C000000000044444E
:102630004428281010000000000054545454382836
:1026400028000000000044442810284444000000F2
:1026500000004444442828101060000000007C045E
:10266000081020407C00081010101060101010108E
:102670001008101010101010101010101010201052
:102680001010100C1010101010200000000000326C
:102690004C000000000000007C4444444444444496
:1026A0007C000000C4260008000000204800000054
:1026B000C40100080C270008480000208009000021
:1026C000E00100080505050503000000000000000A
:1026D00000000000000000000000000000000000FA
:1026E00000000000000000000000000000000000EA
:1026F00000000000A21B000806000A000A000000FB
:0C270000A220000808000C000C000000E3
:040000050800018965
:00000001FF
